{
  "_format": "hh-sol-artifact-1",
  "contractName": "randomizer",
  "sourceName": "contracts/randomizer.sol",
  "abi": [
    {
      "inputs": [
        {
          "internalType": "uint256",
          "name": "_current_season",
          "type": "uint256"
        }
      ],
      "stateMutability": "nonpayable",
      "type": "constructor"
    },
    {
      "anonymous": false,
      "inputs": [
        {
          "indexed": true,
          "internalType": "uint256[5]",
          "name": "players",
          "type": "uint256[5]"
        },
        {
          "indexed": true,
          "internalType": "uint256[5]",
          "name": "divisions",
          "type": "uint256[5]"
        },
        {
          "indexed": true,
          "internalType": "uint256[5]",
          "name": "serials",
          "type": "uint256[5]"
        }
      ],
      "name": "done",
      "type": "event"
    },
    {
      "inputs": [
        {
          "internalType": "uint256",
          "name": "randomIndex",
          "type": "uint256"
        }
      ],
      "name": "buy",
      "outputs": [],
      "stateMutability": "nonpayable",
      "type": "function"
    },
    {
      "inputs": [
        {
          "internalType": "uint256",
          "name": "",
          "type": "uint256"
        },
        {
          "internalType": "uint256",
          "name": "",
          "type": "uint256"
        },
        {
          "internalType": "uint256",
          "name": "",
          "type": "uint256"
        }
      ],
      "name": "completed",
      "outputs": [
        {
          "internalType": "bool",
          "name": "",
          "type": "bool"
        }
      ],
      "stateMutability": "view",
      "type": "function"
    },
    {
      "inputs": [],
      "name": "current_season",
      "outputs": [
        {
          "internalType": "uint256",
          "name": "",
          "type": "uint256"
        }
      ],
      "stateMutability": "view",
      "type": "function"
    },
    {
      "inputs": [
        {
          "internalType": "uint256",
          "name": "",
          "type": "uint256"
        },
        {
          "internalType": "uint256",
          "name": "",
          "type": "uint256"
        },
        {
          "internalType": "uint256",
          "name": "",
          "type": "uint256"
        }
      ],
      "name": "last",
      "outputs": [
        {
          "internalType": "uint256",
          "name": "",
          "type": "uint256"
        }
      ],
      "stateMutability": "view",
      "type": "function"
    },
    {
      "inputs": [
        {
          "internalType": "uint256",
          "name": "",
          "type": "uint256"
        }
      ],
      "name": "players",
      "outputs": [
        {
          "internalType": "uint256",
          "name": "",
          "type": "uint256"
        }
      ],
      "stateMutability": "view",
      "type": "function"
    },
    {
      "inputs": [
        {
          "internalType": "uint256",
          "name": "randomIndex",
          "type": "uint256"
        }
      ],
      "name": "randomMint",
      "outputs": [
        {
          "internalType": "uint256",
          "name": "",
          "type": "uint256"
        },
        {
          "internalType": "uint256",
          "name": "",
          "type": "uint256"
        },
        {
          "internalType": "uint256",
          "name": "",
          "type": "uint256"
        }
      ],
      "stateMutability": "nonpayable",
      "type": "function"
    },
    {
      "inputs": [
        {
          "internalType": "uint256",
          "name": "start",
          "type": "uint256"
        },
        {
          "internalType": "uint256",
          "name": "end",
          "type": "uint256"
        }
      ],
      "name": "setPlayers",
      "outputs": [],
      "stateMutability": "nonpayable",
      "type": "function"
    },
    {
      "inputs": [
        {
          "internalType": "uint256",
          "name": "",
          "type": "uint256"
        },
        {
          "internalType": "uint256",
          "name": "",
          "type": "uint256"
        },
        {
          "internalType": "uint256",
          "name": "",
          "type": "uint256"
        },
        {
          "internalType": "uint256",
          "name": "",
          "type": "uint256"
        }
      ],
      "name": "store",
      "outputs": [
        {
          "internalType": "uint256",
          "name": "",
          "type": "uint256"
        }
      ],
      "stateMutability": "view",
      "type": "function"
    }
  ],
  "bytecode": "0x608060405234801561001057600080fd5b5060405162001166380380620011668339818101604052810190610034919061007c565b80600481905550506100a9565b600080fd5b6000819050919050565b61005981610046565b811461006457600080fd5b50565b60008151905061007681610050565b92915050565b60006020828403121561009257610091610041565b5b60006100a084828501610067565b91505092915050565b6110ad80620000b96000396000f3fe608060405234801561001057600080fd5b50600436106100875760003560e01c8063bcc021f81161005b578063bcc021f814610128578063d96a094a14610158578063f58a284514610174578063f71d96cb146101a457610087565b80621e34981461008c5780634396625a146100aa578063634c2562146100da578063b10cf320146100f6575b600080fd5b6100946101d4565b6040516100a19190610b8c565b60405180910390f35b6100c460048036038101906100bf9190610bd8565b6101da565b6040516100d19190610c46565b60405180910390f35b6100f460048036038101906100ef9190610c61565b610216565b005b610110600480360381019061010b9190610ca1565b61035d565b60405161011f93929190610cce565b60405180910390f35b610142600480360381019061013d9190610bd8565b610998565b60405161014f9190610b8c565b60405180910390f35b610172600480360381019061016d9190610ca1565b6109ca565b005b61018e60048036038101906101899190610d05565b610a45565b60405161019b9190610b8c565b60405180910390f35b6101be60048036038101906101b99190610ca1565b610a84565b6040516101cb9190610b8c565b60405180910390f35b60045481565b6000602052826000526040600020602052816000526040600020602052806000526040600020600092509250509054906101000a900460ff1681565b60008290505b8181101561035857600381908060018154018082558091505060019003906000526020600020016000909190919091505561018f6002600083815260200190815260200160002060006004548152602001908152602001600020600080815260200190815260200160002081905550606360026000838152602001908152602001600020600060045481526020019081526020016000206000600181526020019081526020016000208190555060136002600083815260200190815260200160002060006004548152602001908152602001600020600060028152602001908152602001600020819055506001600260008381526020019081526020016000206000600454815260200190815260200160002060006003815260200190815260200160002081905550808061035090610d9b565b91505061021c565b505050565b600080600080600380549050116103a9576040517f08c379a00000000000000000000000000000000000000000000000000000000081526004016103a090610e40565b60405180910390fd5b60006003805490508544426103be9190610e60565b6103c89190610e60565b6103d29190610ec3565b61ffff1690506000600382815481106103ee576103ed610ef4565b5b906000526020600020015490506000600487444261040c9190610e60565b6104169190610e60565b6104209190610ec3565b61ffff16905060006298967f905060005b6001151560008086815260200190815260200160002060006004548152602001908152602001600020600085815260200190815260200160002060009054906101000a900460ff16151503610497578092506001816104909190610e60565b9050610431565b6000600160026000878152602001908152602001600020600060045481526020019081526020016000206000868152602001908152602001600020546104dd9190610e60565b8a44426104ea9190610e60565b6104f49190610e60565b6104fe9190610ec3565b61ffff1690506000600160008781526020019081526020016000206000600454815260200190815260200160002060008681526020019081526020016000206000838152602001908152602001600020540361057d5761057860405180606001604052806026815260200161105260269139868684610aa8565b610635565b6105e9604051806060016040528060268152602001611052602691398686600160008a8152602001908152602001600020600060045481526020019081526020016000206000898152602001908152602001600020600086815260200190815260200160002054610aa8565b6001600086815260200190815260200160002060006004548152602001908152602001600020600085815260200190815260200160002060008281526020019081526020016000205492505b600260008681526020019081526020016000206000600454815260200190815260200160002060008581526020019081526020016000205460016000878152602001908152602001600020600060045481526020019081526020016000206000868152602001908152602001600020600083815260200190815260200160002081905550600060026000878152602001908152602001600020600060045481526020019081526020016000206000868152602001908152602001600020540361091357600160008087815260200190815260200160002060006004548152602001908152602001600020600086815260200190815260200160002060006101000a81548160ff0219169083151502179055506001151560008087815260200190815260200160002060006004548152602001908152602001600020600080815260200190815260200160002060009054906101000a900460ff1615151480156107e65750600115156000808781526020019081526020016000206000600454815260200190815260200160002060006001815260200190815260200160002060009054906101000a900460ff161515145b801561083a5750600115156000808781526020019081526020016000206000600454815260200190815260200160002060006002815260200190815260200160002060009054906101000a900460ff161515145b801561088e5750600115156000808781526020019081526020016000206000600454815260200190815260200160002060006003815260200190815260200160002060009054906101000a900460ff161515145b1561090e57600360016003805490506108a79190610f23565b815481106108b8576108b7610ef4565b5b9060005260206000200154600386815481106108d7576108d6610ef4565b5b906000526020600020018190555060038054806108f7576108f6610f57565b5b600190038181906000526020600020016000905590555b610963565b600160026000878152602001908152602001600020600060045481526020019081526020016000206000868152602001908152602001600020600082825461095b9190610f23565b925050819055505b6298967f830361098157848482985098509850505050505050610991565b8484849850985098505050505050505b9193909250565b600260205282600052604060002060205281600052604060002060205280600052604060002060009250925050505481565b6109df6002826109da9190610e60565b61035d565b5050506109f76005826109f29190610e60565b61035d565b505050610a0f600182610a0a9190610e60565b61035d565b505050610a27600382610a229190610e60565b61035d565b505050610a3f600482610a3a9190610e60565b61035d565b50505050565b60016020528360005260406000206020528260005260406000206020528160005260406000206020528060005260406000206000935093505050505481565b60038181548110610a9457600080fd5b906000526020600020016000915090505481565b610b4484848484604051602401610ac29493929190611005565b6040516020818303038152906040527fa7a87853000000000000000000000000000000000000000000000000000000007bffffffffffffffffffffffffffffffffffffffffffffffffffffffff19166020820180517bffffffffffffffffffffffffffffffffffffffffffffffffffffffff8381831617835250505050610b4a565b50505050565b60008151905060006a636f6e736f6c652e6c6f679050602083016000808483855afa5050505050565b6000819050919050565b610b8681610b73565b82525050565b6000602082019050610ba16000830184610b7d565b92915050565b600080fd5b610bb581610b73565b8114610bc057600080fd5b50565b600081359050610bd281610bac565b92915050565b600080600060608486031215610bf157610bf0610ba7565b5b6000610bff86828701610bc3565b9350506020610c1086828701610bc3565b9250506040610c2186828701610bc3565b9150509250925092565b60008115159050919050565b610c4081610c2b565b82525050565b6000602082019050610c5b6000830184610c37565b92915050565b60008060408385031215610c7857610c77610ba7565b5b6000610c8685828601610bc3565b9250506020610c9785828601610bc3565b9150509250929050565b600060208284031215610cb757610cb6610ba7565b5b6000610cc584828501610bc3565b91505092915050565b6000606082019050610ce36000830186610b7d565b610cf06020830185610b7d565b610cfd6040830184610b7d565b949350505050565b60008060008060808587031215610d1f57610d1e610ba7565b5b6000610d2d87828801610bc3565b9450506020610d3e87828801610bc3565b9350506040610d4f87828801610bc3565b9250506060610d6087828801610bc3565b91505092959194509250565b7f4e487b7100000000000000000000000000000000000000000000000000000000600052601160045260246000fd5b6000610da682610b73565b91507fffffffffffffffffffffffffffffffffffffffffffffffffffffffffffffffff8203610dd857610dd7610d6c565b5b600182019050919050565b600082825260208201905092915050565b7f4e6f206d6f7265206361726473206c65667420666f72206d696e74696e670000600082015250565b6000610e2a601e83610de3565b9150610e3582610df4565b602082019050919050565b60006020820190508181036000830152610e5981610e1d565b9050919050565b6000610e6b82610b73565b9150610e7683610b73565b9250828201905080821115610e8e57610e8d610d6c565b5b92915050565b7f4e487b7100000000000000000000000000000000000000000000000000000000600052601260045260246000fd5b6000610ece82610b73565b9150610ed983610b73565b925082610ee957610ee8610e94565b5b828206905092915050565b7f4e487b7100000000000000000000000000000000000000000000000000000000600052603260045260246000fd5b6000610f2e82610b73565b9150610f3983610b73565b9250828203905081811115610f5157610f50610d6c565b5b92915050565b7f4e487b7100000000000000000000000000000000000000000000000000000000600052603160045260246000fd5b600081519050919050565b60005b83811015610faf578082015181840152602081019050610f94565b60008484015250505050565b6000601f19601f8301169050919050565b6000610fd782610f86565b610fe18185610de3565b9350610ff1818560208601610f91565b610ffa81610fbb565b840191505092915050565b6000608082019050818103600083015261101f8187610fcc565b905061102e6020830186610b7d565b61103b6040830185610b7d565b6110486060830184610b7d565b9594505050505056fe4d696e74656420706c61796572202573206469766973696f6e2025732073657269616c202573a2646970667358221220cf6c321993116acb486ed4f07f21f1065139e5185035bfdd6db2f7055cec352764736f6c63430008120033",
  "linkReferences": {},
  "deployedLinkReferences": {}
}