{
  "_format": "hh-sol-artifact-1",
  "contractName": "randomizer",
  "sourceName": "contracts/randomizer.sol",
  "abi": [
    {
      "inputs": [
        {
          "internalType": "uint256",
          "name": "_current_season",
          "type": "uint256"
        }
      ],
      "stateMutability": "nonpayable",
      "type": "constructor"
    },
    {
      "anonymous": false,
      "inputs": [
        {
          "indexed": true,
          "internalType": "uint256[5]",
          "name": "players",
          "type": "uint256[5]"
        },
        {
          "indexed": true,
          "internalType": "uint256[5]",
          "name": "divisions",
          "type": "uint256[5]"
        },
        {
          "indexed": true,
          "internalType": "uint256[5]",
          "name": "serials",
          "type": "uint256[5]"
        }
      ],
      "name": "done",
      "type": "event"
    },
    {
      "inputs": [
        {
          "internalType": "uint256",
          "name": "randomIndex",
          "type": "uint256"
        }
      ],
      "name": "buy",
      "outputs": [],
      "stateMutability": "nonpayable",
      "type": "function"
    },
    {
      "inputs": [
        {
          "internalType": "uint256",
          "name": "",
          "type": "uint256"
        },
        {
          "internalType": "uint256",
          "name": "",
          "type": "uint256"
        },
        {
          "internalType": "uint256",
          "name": "",
          "type": "uint256"
        }
      ],
      "name": "completed",
      "outputs": [
        {
          "internalType": "bool",
          "name": "",
          "type": "bool"
        }
      ],
      "stateMutability": "view",
      "type": "function"
    },
    {
      "inputs": [],
      "name": "current_season",
      "outputs": [
        {
          "internalType": "uint256",
          "name": "",
          "type": "uint256"
        }
      ],
      "stateMutability": "view",
      "type": "function"
    },
    {
      "inputs": [
        {
          "internalType": "uint256",
          "name": "",
          "type": "uint256"
        },
        {
          "internalType": "uint256",
          "name": "",
          "type": "uint256"
        },
        {
          "internalType": "uint256",
          "name": "",
          "type": "uint256"
        }
      ],
      "name": "last",
      "outputs": [
        {
          "internalType": "uint256",
          "name": "",
          "type": "uint256"
        }
      ],
      "stateMutability": "view",
      "type": "function"
    },
    {
      "inputs": [
        {
          "internalType": "uint256",
          "name": "",
          "type": "uint256"
        }
      ],
      "name": "players",
      "outputs": [
        {
          "internalType": "uint256",
          "name": "",
          "type": "uint256"
        }
      ],
      "stateMutability": "view",
      "type": "function"
    },
    {
      "inputs": [
        {
          "internalType": "uint256",
          "name": "randomIndex",
          "type": "uint256"
        }
      ],
      "name": "randomMint",
      "outputs": [
        {
          "internalType": "uint256",
          "name": "",
          "type": "uint256"
        },
        {
          "internalType": "uint256",
          "name": "",
          "type": "uint256"
        },
        {
          "internalType": "uint256",
          "name": "",
          "type": "uint256"
        }
      ],
      "stateMutability": "nonpayable",
      "type": "function"
    },
    {
      "inputs": [
        {
          "internalType": "uint256",
          "name": "",
          "type": "uint256"
        },
        {
          "internalType": "uint256",
          "name": "",
          "type": "uint256"
        },
        {
          "internalType": "uint256",
          "name": "",
          "type": "uint256"
        },
        {
          "internalType": "uint256",
          "name": "",
          "type": "uint256"
        }
      ],
      "name": "store",
      "outputs": [
        {
          "internalType": "uint256",
          "name": "",
          "type": "uint256"
        }
      ],
      "stateMutability": "view",
      "type": "function"
    }
  ],
  "bytecode": "0x60806040523480156200001157600080fd5b50604051620010cb380380620010cb8339818101604052810190620000379190620001c2565b8060048190555060005b60038110156200017a57600381908060018154018082558091505060019003906000526020600020016000909190919091505561018f6002600083815260200190815260200160002060008481526020019081526020016000206000808152602001908152602001600020819055506063600260008381526020019081526020016000206000848152602001908152602001600020600060018152602001908152602001600020819055506013600260008381526020019081526020016000206000848152602001908152602001600020600060028152602001908152602001600020819055506001600260008381526020019081526020016000206000848152602001908152602001600020600060038152602001908152602001600020819055508080620001719062000223565b91505062000041565b505062000270565b600080fd5b6000819050919050565b6200019c8162000187565b8114620001a857600080fd5b50565b600081519050620001bc8162000191565b92915050565b600060208284031215620001db57620001da62000182565b5b6000620001eb84828501620001ab565b91505092915050565b7f4e487b7100000000000000000000000000000000000000000000000000000000600052601160045260246000fd5b6000620002308262000187565b91507fffffffffffffffffffffffffffffffffffffffffffffffffffffffffffffffff8203620002655762000264620001f4565b5b600182019050919050565b610e4b80620002806000396000f3fe608060405234801561001057600080fd5b506004361061007c5760003560e01c8063bcc021f81161005b578063bcc021f814610101578063d96a094a14610131578063f58a28451461014d578063f71d96cb1461017d5761007c565b80621e3498146100815780634396625a1461009f578063b10cf320146100cf575b600080fd5b6100896101ad565b60405161009691906109b2565b60405180910390f35b6100b960048036038101906100b491906109fe565b6101b3565b6040516100c69190610a6c565b60405180910390f35b6100e960048036038101906100e49190610a87565b6101ef565b6040516100f893929190610ab4565b60405180910390f35b61011b600480360381019061011691906109fe565b61082a565b60405161012891906109b2565b60405180910390f35b61014b60048036038101906101469190610a87565b61085c565b005b61016760048036038101906101629190610aeb565b61086b565b60405161017491906109b2565b60405180910390f35b61019760048036038101906101929190610a87565b6108aa565b6040516101a491906109b2565b60405180910390f35b60045481565b6000602052826000526040600020602052816000526040600020602052806000526040600020600092509250509054906101000a900460ff1681565b6000806000806003805490501161023b576040517f08c379a000000000000000000000000000000000000000000000000000000000815260040161023290610baf565b60405180910390fd5b60006003805490508544426102509190610bfe565b61025a9190610bfe565b6102649190610c61565b61ffff1690506000600382815481106102805761027f610c92565b5b906000526020600020015490506000600487444261029e9190610bfe565b6102a89190610bfe565b6102b29190610c61565b61ffff16905060006298967f905060005b6001151560008086815260200190815260200160002060006004548152602001908152602001600020600085815260200190815260200160002060009054906101000a900460ff16151503610329578092506001816103229190610bfe565b90506102c3565b60006001600260008781526020019081526020016000206000600454815260200190815260200160002060008681526020019081526020016000205461036f9190610bfe565b8a444261037c9190610bfe565b6103869190610bfe565b6103909190610c61565b61ffff1690506000600160008781526020019081526020016000206000600454815260200190815260200160002060008681526020019081526020016000206000838152602001908152602001600020540361040f5761040a604051806060016040528060268152602001610df0602691398686846108ce565b6104c7565b61047b604051806060016040528060268152602001610df0602691398686600160008a81526020019081526020016000206000600454815260200190815260200160002060008981526020019081526020016000206000868152602001908152602001600020546108ce565b6001600086815260200190815260200160002060006004548152602001908152602001600020600085815260200190815260200160002060008281526020019081526020016000205492505b60026000868152602001908152602001600020600060045481526020019081526020016000206000858152602001908152602001600020546001600087815260200190815260200160002060006004548152602001908152602001600020600086815260200190815260200160002060008381526020019081526020016000208190555060006002600087815260200190815260200160002060006004548152602001908152602001600020600086815260200190815260200160002054036107a557600160008087815260200190815260200160002060006004548152602001908152602001600020600086815260200190815260200160002060006101000a81548160ff0219169083151502179055506001151560008087815260200190815260200160002060006004548152602001908152602001600020600080815260200190815260200160002060009054906101000a900460ff1615151480156106785750600115156000808781526020019081526020016000206000600454815260200190815260200160002060006001815260200190815260200160002060009054906101000a900460ff161515145b80156106cc5750600115156000808781526020019081526020016000206000600454815260200190815260200160002060006002815260200190815260200160002060009054906101000a900460ff161515145b80156107205750600115156000808781526020019081526020016000206000600454815260200190815260200160002060006003815260200190815260200160002060009054906101000a900460ff161515145b156107a057600360016003805490506107399190610cc1565b8154811061074a57610749610c92565b5b90600052602060002001546003868154811061076957610768610c92565b5b9060005260206000200181905550600380548061078957610788610cf5565b5b600190038181906000526020600020016000905590555b6107f5565b60016002600087815260200190815260200160002060006004548152602001908152602001600020600086815260200190815260200160002060008282546107ed9190610cc1565b925050819055505b6298967f830361081357848482985098509850505050505050610823565b8484849850985098505050505050505b9193909250565b600260205282600052604060002060205281600052604060002060205280600052604060002060009250925050505481565b610865816101ef565b50505050565b60016020528360005260406000206020528260005260406000206020528160005260406000206020528060005260406000206000935093505050505481565b600381815481106108ba57600080fd5b906000526020600020016000915090505481565b61096a848484846040516024016108e89493929190610da3565b6040516020818303038152906040527fa7a87853000000000000000000000000000000000000000000000000000000007bffffffffffffffffffffffffffffffffffffffffffffffffffffffff19166020820180517bffffffffffffffffffffffffffffffffffffffffffffffffffffffff8381831617835250505050610970565b50505050565b60008151905060006a636f6e736f6c652e6c6f679050602083016000808483855afa5050505050565b6000819050919050565b6109ac81610999565b82525050565b60006020820190506109c760008301846109a3565b92915050565b600080fd5b6109db81610999565b81146109e657600080fd5b50565b6000813590506109f8816109d2565b92915050565b600080600060608486031215610a1757610a166109cd565b5b6000610a25868287016109e9565b9350506020610a36868287016109e9565b9250506040610a47868287016109e9565b9150509250925092565b60008115159050919050565b610a6681610a51565b82525050565b6000602082019050610a816000830184610a5d565b92915050565b600060208284031215610a9d57610a9c6109cd565b5b6000610aab848285016109e9565b91505092915050565b6000606082019050610ac960008301866109a3565b610ad660208301856109a3565b610ae360408301846109a3565b949350505050565b60008060008060808587031215610b0557610b046109cd565b5b6000610b13878288016109e9565b9450506020610b24878288016109e9565b9350506040610b35878288016109e9565b9250506060610b46878288016109e9565b91505092959194509250565b600082825260208201905092915050565b7f4e6f206d6f7265206361726473206c65667420666f72206d696e74696e670000600082015250565b6000610b99601e83610b52565b9150610ba482610b63565b602082019050919050565b60006020820190508181036000830152610bc881610b8c565b9050919050565b7f4e487b7100000000000000000000000000000000000000000000000000000000600052601160045260246000fd5b6000610c0982610999565b9150610c1483610999565b9250828201905080821115610c2c57610c2b610bcf565b5b92915050565b7f4e487b7100000000000000000000000000000000000000000000000000000000600052601260045260246000fd5b6000610c6c82610999565b9150610c7783610999565b925082610c8757610c86610c32565b5b828206905092915050565b7f4e487b7100000000000000000000000000000000000000000000000000000000600052603260045260246000fd5b6000610ccc82610999565b9150610cd783610999565b9250828203905081811115610cef57610cee610bcf565b5b92915050565b7f4e487b7100000000000000000000000000000000000000000000000000000000600052603160045260246000fd5b600081519050919050565b60005b83811015610d4d578082015181840152602081019050610d32565b60008484015250505050565b6000601f19601f8301169050919050565b6000610d7582610d24565b610d7f8185610b52565b9350610d8f818560208601610d2f565b610d9881610d59565b840191505092915050565b60006080820190508181036000830152610dbd8187610d6a565b9050610dcc60208301866109a3565b610dd960408301856109a3565b610de660608301846109a3565b9594505050505056fe4d696e74656420706c61796572202573206469766973696f6e2025732073657269616c202573a2646970667358221220bd8913ee7d6dc0cf7618d4e069ce1b9730b3984ae0555508240f9dfcf5ea3f5764736f6c63430008120033",
  "linkReferences": {},
  "deployedLinkReferences": {}
}